{
  "contractName": "Voting",
  "abi": [
    {
      "inputs": [],
      "stateMutability": "nonpayable",
      "type": "constructor"
    },
    {
      "anonymous": false,
      "inputs": [
        {
          "indexed": true,
          "internalType": "uint256",
          "name": "id",
          "type": "uint256"
        },
        {
          "indexed": false,
          "internalType": "string",
          "name": "name",
          "type": "string"
        }
      ],
      "name": "CandidateAdded",
      "type": "event"
    },
    {
      "anonymous": false,
      "inputs": [
        {
          "indexed": false,
          "internalType": "uint256",
          "name": "endTime",
          "type": "uint256"
        }
      ],
      "name": "ElectionEnded",
      "type": "event"
    },
    {
      "anonymous": false,
      "inputs": [
        {
          "indexed": false,
          "internalType": "uint256",
          "name": "startTime",
          "type": "uint256"
        }
      ],
      "name": "ElectionStarted",
      "type": "event"
    },
    {
      "anonymous": false,
      "inputs": [
        {
          "indexed": true,
          "internalType": "address",
          "name": "voter",
          "type": "address"
        },
        {
          "indexed": false,
          "internalType": "uint256",
          "name": "candidateId",
          "type": "uint256"
        }
      ],
      "name": "VoteCast",
      "type": "event"
    },
    {
      "inputs": [],
      "name": "admin",
      "outputs": [
        {
          "internalType": "address",
          "name": "",
          "type": "address"
        }
      ],
      "stateMutability": "view",
      "type": "function",
      "constant": true
    },
    {
      "inputs": [
        {
          "internalType": "uint256",
          "name": "",
          "type": "uint256"
        }
      ],
      "name": "candidates",
      "outputs": [
        {
          "internalType": "uint256",
          "name": "id",
          "type": "uint256"
        },
        {
          "internalType": "string",
          "name": "name",
          "type": "string"
        },
        {
          "internalType": "uint256",
          "name": "voteCount",
          "type": "uint256"
        }
      ],
      "stateMutability": "view",
      "type": "function",
      "constant": true
    },
    {
      "inputs": [],
      "name": "candidatesCount",
      "outputs": [
        {
          "internalType": "uint256",
          "name": "",
          "type": "uint256"
        }
      ],
      "stateMutability": "view",
      "type": "function",
      "constant": true
    },
    {
      "inputs": [],
      "name": "electionDuration",
      "outputs": [
        {
          "internalType": "uint256",
          "name": "",
          "type": "uint256"
        }
      ],
      "stateMutability": "view",
      "type": "function",
      "constant": true
    },
    {
      "inputs": [],
      "name": "electionStartTime",
      "outputs": [
        {
          "internalType": "uint256",
          "name": "",
          "type": "uint256"
        }
      ],
      "stateMutability": "view",
      "type": "function",
      "constant": true
    },
    {
      "inputs": [
        {
          "internalType": "address",
          "name": "",
          "type": "address"
        }
      ],
      "name": "hasVoted",
      "outputs": [
        {
          "internalType": "bool",
          "name": "",
          "type": "bool"
        }
      ],
      "stateMutability": "view",
      "type": "function",
      "constant": true
    },
    {
      "inputs": [],
      "name": "status",
      "outputs": [
        {
          "internalType": "enum Voting.ElectionStatus",
          "name": "",
          "type": "uint8"
        }
      ],
      "stateMutability": "view",
      "type": "function",
      "constant": true
    },
    {
      "inputs": [
        {
          "internalType": "string",
          "name": "_name",
          "type": "string"
        }
      ],
      "name": "addCandidate",
      "outputs": [],
      "stateMutability": "nonpayable",
      "type": "function"
    },
    {
      "inputs": [],
      "name": "startElection",
      "outputs": [],
      "stateMutability": "nonpayable",
      "type": "function"
    },
    {
      "inputs": [],
      "name": "endElection",
      "outputs": [],
      "stateMutability": "nonpayable",
      "type": "function"
    },
    {
      "inputs": [
        {
          "internalType": "uint256",
          "name": "_candidateId",
          "type": "uint256"
        }
      ],
      "name": "vote",
      "outputs": [],
      "stateMutability": "nonpayable",
      "type": "function"
    },
    {
      "inputs": [],
      "name": "getResults",
      "outputs": [
        {
          "components": [
            {
              "internalType": "uint256",
              "name": "id",
              "type": "uint256"
            },
            {
              "internalType": "string",
              "name": "name",
              "type": "string"
            },
            {
              "internalType": "uint256",
              "name": "voteCount",
              "type": "uint256"
            }
          ],
          "internalType": "struct Voting.Candidate[]",
          "name": "",
          "type": "tuple[]"
        }
      ],
      "stateMutability": "view",
      "type": "function",
      "constant": true
    },
    {
      "inputs": [],
      "name": "getElectionTimeLeft",
      "outputs": [
        {
          "internalType": "uint256",
          "name": "",
          "type": "uint256"
        }
      ],
      "stateMutability": "view",
      "type": "function",
      "constant": true
    },
    {
      "inputs": [
        {
          "internalType": "address",
          "name": "_voter",
          "type": "address"
        }
      ],
      "name": "canVote",
      "outputs": [
        {
          "internalType": "bool",
          "name": "",
          "type": "bool"
        }
      ],
      "stateMutability": "view",
      "type": "function",
      "constant": true
    }
  ],
  "bytecode": "0x60806040526203f4806005553480156200001857600080fd5b5060038054610100600160a81b03191633610100021760ff19169055604080518082019091526008815267434f4e475245535360c01b60208201526200005e90620000ae565b6040805180820190915260038152620424a560ec1b60208201526200008390620000ae565b6040805180820190915260038152624a445360e81b6020820152620000a890620000ae565b620003cb565b60035461010090046001600160a01b03163314620000e95760405162461bcd60e51b8152600401620000e09062000324565b60405180910390fd5b600060035460ff1660028111156200011157634e487b7160e01b600052602160045260246000fd5b14620001315760405162461bcd60e51b8152600401620000e090620002d9565b600280549060006200014383620003a3565b9091555050604080516060810182526002548082526020808301858152600084860181905292835260018083529490922083518155915180519394929362000193938501929190910190620001dd565b506040918201516002918201555490517fe83b2a43e7e82d975c8a0a6d2f045153c869e111136a34d1889ab7b598e396a390620001d290849062000283565b60405180910390a250565b828054620001eb9062000366565b90600052602060002090601f0160209004810192826200020f57600085556200025a565b82601f106200022a57805160ff19168380011785556200025a565b828001600101855582156200025a579182015b828111156200025a5782518255916020019190600101906200023d565b50620002689291506200026c565b5090565b5b808211156200026857600081556001016200026d565b6000602080835283518082850152825b81811015620002b15785810183015185820160400152820162000293565b81811115620002c35783604083870101525b50601f01601f1916929092016040019392505050565b6020808252602b908201527f43616e6e6f74206164642063616e6469646174657320616674657220656c656360408201526a74696f6e2073746172747360a81b606082015260800190565b60208082526022908201527f4f6e6c792061646d696e2063616e20706572666f726d2074686973206163746960408201526137b760f11b606082015260800190565b6002810460018216806200037b57607f821691505b602082108114156200039d57634e487b7160e01b600052602260045260246000fd5b50919050565b6000600019821415620003c457634e487b7160e01b81526011600452602481fd5b5060010190565b610eb080620003db6000396000f3fe608060405234801561001057600080fd5b50600436106100ea5760003560e01c80634717f97c1161008c57806377a1ad111161006657806377a1ad11146101b9578063adfaa72e146101c1578063c5980c94146101d4578063f851a440146101dc576100ea565b80634717f97c1461019457806359f78468146101a957806362d73eb8146101b1576100ea565b8063200d2ed2116100c8578063200d2ed2146101425780632d35a8a2146101575780633477ee2e1461015f578063462e91ec14610181576100ea565b80630121b93f146100ef57806309eef43e146101045780631bf806cb1461012d575b600080fd5b6101026100fd366004610aa9565b6101f1565b005b6101176101123660046109da565b610349565b6040516101249190610b9e565b60405180910390f35b61013561035e565b6040516101249190610d97565b61014a610364565b6040516101249190610ba9565b61013561036d565b61017261016d366004610aa9565b610373565b60405161012493929190610da0565b61010261018f366004610a08565b61041d565b61019c61052b565b6040516101249190610b20565b6101026106b3565b61010261076d565b610135610821565b6101176101cf3660046109da565b610896565b610135610906565b6101e461090c565b6040516101249190610b0c565b600160035460ff16600281111561021857634e487b7160e01b600052602160045260246000fd5b1461023e5760405162461bcd60e51b815260040161023590610d3a565b60405180910390fd5b60055460045461024e9190610dc9565b42111561026d5760405162461bcd60e51b815260040161023590610c9b565b3360009081526020819052604090205460ff161561029d5760405162461bcd60e51b815260040161023590610d67565b6000811180156102af57506002548111155b6102cb5760405162461bcd60e51b815260040161023590610c70565b33600090815260208181526040808320805460ff19166001908117909155848452909152812060020180549161030083610e33565b9190505550336001600160a01b03167fa36cc2bebb74db33e9f88110a07ef56e1b31b24b4c4f51b54b1664266e29f45b8260405161033e9190610d97565b60405180910390a250565b60006020819052908152604090205460ff1681565b60055481565b60035460ff1681565b60025481565b60016020819052600091825260409091208054918101805461039490610df8565b80601f01602080910402602001604051908101604052809291908181526020018280546103c090610df8565b801561040d5780601f106103e25761010080835404028352916020019161040d565b820191906000526020600020905b8154815290600101906020018083116103f057829003601f168201915b5050505050908060020154905083565b60035461010090046001600160a01b0316331461044c5760405162461bcd60e51b815260040161023590610cca565b600060035460ff16600281111561047357634e487b7160e01b600052602160045260246000fd5b146104905760405162461bcd60e51b815260040161023590610c25565b600280549060006104a083610e33565b909155505060408051606081018252600254808252602080830185815260008486018190529283526001808352949092208351815591518051939492936104ee938501929190910190610920565b506040918201516002918201555490517fe83b2a43e7e82d975c8a0a6d2f045153c869e111136a34d1889ab7b598e396a39061033e908490610bd1565b6060600060025467ffffffffffffffff81111561055857634e487b7160e01b600052604160045260246000fd5b60405190808252806020026020018201604052801561059157816020015b61057e6109a4565b8152602001906001900390816105765790505b50905060005b6002548110156106ac57600160006105af8383610dc9565b8152602001908152602001600020604051806060016040529081600082015481526020016001820180546105e290610df8565b80601f016020809104026020016040519081016040528092919081815260200182805461060e90610df8565b801561065b5780601f106106305761010080835404028352916020019161065b565b820191906000526020600020905b81548152906001019060200180831161063e57829003601f168201915b5050505050815260200160028201548152505082828151811061068e57634e487b7160e01b600052603260045260246000fd5b602002602001018190525080806106a490610e33565b915050610597565b5090505b90565b60035461010090046001600160a01b031633146106e25760405162461bcd60e51b815260040161023590610cca565b600160035460ff16600281111561070957634e487b7160e01b600052602160045260246000fd5b146107265760405162461bcd60e51b815260040161023590610d0c565b6003805460ff191660021790556040517f562cd572b2ba3b666cd989fc4ca98419ec81e75f04528df9d9d76fdb7807ee7190610763904290610d97565b60405180910390a1565b60035461010090046001600160a01b0316331461079c5760405162461bcd60e51b815260040161023590610cca565b600060035460ff1660028111156107c357634e487b7160e01b600052602160045260246000fd5b146107e05760405162461bcd60e51b815260040161023590610be4565b6003805460ff191660011790554260048190556040517f159eee87222a0489c529f2153c26ad65d718f2cc33ebaa8d399d1dd5b39facaa9161076391610d97565b6000600160035460ff16600281111561084a57634e487b7160e01b600052602160045260246000fd5b14610857575060006106b0565b6005546004546108679190610dc9565b421115610876575060006106b0565b426005546004546108879190610dc9565b6108919190610de1565b905090565b6000600160035460ff1660028111156108bf57634e487b7160e01b600052602160045260246000fd5b1480156108e557506001600160a01b03821660009081526020819052604090205460ff16155b801561090057506005546004546108fc9190610dc9565b4211155b92915050565b60045481565b60035461010090046001600160a01b031681565b82805461092c90610df8565b90600052602060002090601f01602090048101928261094e5760008555610994565b82601f1061096757805160ff1916838001178555610994565b82800160010185558215610994579182015b82811115610994578251825591602001919060010190610979565b506109a09291506109c5565b5090565b60405180606001604052806000815260200160608152602001600081525090565b5b808211156109a057600081556001016109c6565b6000602082840312156109eb578081fd5b81356001600160a01b0381168114610a01578182fd5b9392505050565b60006020808385031215610a1a578182fd5b823567ffffffffffffffff80821115610a31578384fd5b818501915085601f830112610a44578384fd5b813581811115610a5657610a56610e64565b604051601f8201601f1916810185018381118282101715610a7957610a79610e64565b6040528181528382018501881015610a8f578586fd5b818585018683013790810190930193909352509392505050565b600060208284031215610aba578081fd5b5035919050565b60008151808452815b81811015610ae657602081850181015186830182015201610aca565b81811115610af75782602083870101525b50601f01601f19169290920160200192915050565b6001600160a01b0391909116815260200190565b60208082528251828201819052600091906040908185019080840286018301878501865b83811015610b9057603f19898403018552815160608151855288820151818a870152610b7282870182610ac1565b92890151958901959095525094870194925090860190600101610b44565b509098975050505050505050565b901515815260200190565b6020810160038310610bcb57634e487b7160e01b600052602160045260246000fd5b91905290565b600060208252610a016020830184610ac1565b60208082526021908201527f456c656374696f6e20616c72656164792073746172746564206f7220656e64656040820152601960fa1b606082015260800190565b6020808252602b908201527f43616e6e6f74206164642063616e6469646174657320616674657220656c656360408201526a74696f6e2073746172747360a81b606082015260800190565b602080825260119082015270496e76616c69642063616e64696461746560781b604082015260600190565b602080825260159082015274115b1958dd1a5bdb881c195c9a5bd908195b991959605a1b604082015260600190565b60208082526022908201527f4f6e6c792061646d696e2063616e20706572666f726d2074686973206163746960408201526137b760f11b606082015260800190565b602080825260149082015273115b1958dd1a5bdb881b9bdd081cdd185c9d195960621b604082015260600190565b602080825260139082015272456c656374696f6e206e6f742061637469766560681b604082015260600190565b602080825260169082015275165bdd481a185d9948185b1c9958591e481d9bdd195960521b604082015260600190565b90815260200190565b600084825260606020830152610db96060830185610ac1565b9050826040830152949350505050565b60008219821115610ddc57610ddc610e4e565b500190565b600082821015610df357610df3610e4e565b500390565b600281046001821680610e0c57607f821691505b60208210811415610e2d57634e487b7160e01b600052602260045260246000fd5b50919050565b6000600019821415610e4757610e47610e4e565b5060010190565b634e487b7160e01b600052601160045260246000fd5b634e487b7160e01b600052604160045260246000fdfea26469706673582212207af8328629896d3362baa3524afc81b7b0337c8d112e0923f303a9b817e704c864736f6c63430008000033",
  "immutableReferences": {},
  "source": "// SPDX-License-Identifier: MIT\r\npragma solidity ^0.8.0;\r\n\r\ncontract Voting {\r\n    struct Candidate {\r\n        uint id;\r\n        string name;\r\n        uint voteCount;\r\n    }\r\n\r\n    mapping(address => bool) public hasVoted;\r\n    mapping(uint => Candidate) public candidates;\r\n\r\n    uint public candidatesCount;\r\n\r\n    enum ElectionStatus { NotStarted, Started, Ended }\r\n    ElectionStatus public status;\r\n\r\n    address public admin; // FIXED: Removed immutable for constructor access\r\n\r\n    uint public electionStartTime;\r\n    uint public electionDuration = 3 days;\r\n\r\n    // Events\r\n    event ElectionStarted(uint startTime);\r\n    event ElectionEnded(uint endTime);\r\n    event VoteCast(address indexed voter, uint candidateId);\r\n    event CandidateAdded(uint indexed id, string name);\r\n\r\n    constructor() {\r\n        admin = msg.sender;\r\n        status = ElectionStatus.NotStarted;\r\n        addCandidate(\"CONGRESS\");\r\n        addCandidate(\"BJP\");\r\n        addCandidate(\"JDS\");\r\n    }\r\n\r\n    modifier onlyAdmin() {\r\n        require(msg.sender == admin, \"Only admin can perform this action\");\r\n        _;\r\n    }\r\n\r\n    modifier electionActive() {\r\n        require(status == ElectionStatus.Started, \"Election not active\");\r\n        require(block.timestamp <= electionStartTime + electionDuration, \"Election period ended\");\r\n        _;\r\n    }\r\n\r\n    function addCandidate(string memory _name) public onlyAdmin {\r\n        require(status == ElectionStatus.NotStarted, \"Cannot add candidates after election starts\");\r\n        candidatesCount++;\r\n        candidates[candidatesCount] = Candidate(candidatesCount, _name, 0);\r\n        emit CandidateAdded(candidatesCount, _name);\r\n    }\r\n\r\n    function startElection() public onlyAdmin {\r\n        require(status == ElectionStatus.NotStarted, \"Election already started or ended\");\r\n        status = ElectionStatus.Started;\r\n        electionStartTime = block.timestamp;\r\n        emit ElectionStarted(electionStartTime);\r\n    }\r\n\r\n    function endElection() public onlyAdmin {\r\n        require(status == ElectionStatus.Started, \"Election not started\");\r\n        status = ElectionStatus.Ended;\r\n        emit ElectionEnded(block.timestamp);\r\n    }\r\n\r\n    function vote(uint _candidateId) public electionActive {\r\n        require(!hasVoted[msg.sender], \"You have already voted\");\r\n        require(_candidateId > 0 && _candidateId <= candidatesCount, \"Invalid candidate\");\r\n\r\n        hasVoted[msg.sender] = true;\r\n        candidates[_candidateId].voteCount++;\r\n\r\n        emit VoteCast(msg.sender, _candidateId);\r\n    }\r\n\r\n    function getResults() public view returns (Candidate[] memory) {\r\n        Candidate[] memory result = new Candidate[](candidatesCount);\r\n        for (uint i = 0; i < candidatesCount; i++) {\r\n            result[i] = candidates[i + 1];\r\n        }\r\n        return result;\r\n    }\r\n\r\n    function getElectionTimeLeft() public view returns (uint) {\r\n        if (status != ElectionStatus.Started) return 0;\r\n        if (block.timestamp > electionStartTime + electionDuration) return 0;\r\n        return (electionStartTime + electionDuration) - block.timestamp;\r\n    }\r\n\r\n    function canVote(address _voter) public view returns (bool) {\r\n        return status == ElectionStatus.Started &&\r\n               !hasVoted[_voter] &&\r\n               block.timestamp <= electionStartTime + electionDuration;\r\n    }\r\n}\r\n",
  "sourcePath": "C:\\Users\\Syed khizer\\OneDrive\\Desktop\\workingproj\\Workingproject\\contracts\\Voting.sol",
  "compiler": {
    "name": "solc",
    "version": "0.8.0+commit.c7dfd78e.Emscripten.clang"
  },
  "schemaVersion": "3.4.16",
  "updatedAt": "2025-05-13T12:42:44.459Z",
  "networkType": "ethereum",
  "devdoc": {
    "kind": "dev",
    "methods": {},
    "version": 1
  },
  "userdoc": {
    "kind": "user",
    "methods": {},
    "version": 1
  }
}